:100000000C9428030C9459030C9459030C94590331
:100010000C9459030C9459030C9459030C945903F0
:100020000C9459030C949F1C0C949F1C0C949F1CC3
:100030000C9459030C9459030C9459030C945903D0
:100040000C9459030C9459030C9459030C945903C0
:100050000C9459030C9459030C9459030C94051BEC
:100060000C9459030C94751C0C944B1C0C94590360
:100070000C9459030C9459030C9459030C94590390
:100080000C9459030C9459030C9459030C94590380
:100090000C94211C0C94F71B0C9459030C941B1DFD
:1000A0000C9459030C9459030C9459030C94590360
:1000B0000C9459030C9459030C9459030C94590350
:1000C0000C9459030C9459030C9459030C94CD1BB4
:1000D0000C94A31B0C9459030C94791B0C944F1B88
:1000E0000C94590308000000BE922449123EABAAAA
:1000F000AA2ABECDCCCC4C3E00000080BEABAAAA42
:10010000AA3E00000000BF000000803F0000000089
:1001100000084178D3BB4387D1133D190E3CC3BDC2
:100120004282AD2B3E68EC8276BED98FE1A93E4C6F
:1001300080EFFFBE01C4FF7F3F00000000000C9471
:10014000CD030C941C070C94AD100C944F1A0C9416
:1001500092070C9468170C94F60A0C943F1E0C94AA
:1001600035070C94F2030C940E040C94D3030C94F6
:100170001D070C94D7030C948D030C94DF030C948F
:10018000DB030C94DC050C94CD0A0C9407190C9439
:10019000FB180C9408040C940F050C9412040C9496
:1001A0007C060C94F8180C9400040C9448170C94DA
:1001B000E8030C94F6030C943A090C9464050C942F
:1001C000FA030C94CB340C9404040C94A8070C94FC
:1001D000FE180C94DC0A0C94EC030C94EF0A0C94BB
:1001E000D2180C94061A0C9478060C9455050C94AD
:1001F0000D040C9478050C9429060C9436070C9485
:100200008E030C94660B0C9486050C94230B0C94B3
:10021000E20300407A10F35A00A0724E1809001051
:10022000A5D4E80000E87648170000E40B5402006B
:1002300000CA9A3B000000E1F50500008096980096
:10024000000040420F000000A086010000001027BF
:1002500000000000E803000000006400000000004F
:100260000A00000000000100000000002C76D88881
:10027000DC674F0823DFC1DFAE59E1B1B796E5E394
:10028000E453C63AE651997696E8E6C28426EB89AD
:100290008C9B62ED407C6FFCEFBC9C9F40F2BAA54A
:1002A0006FA5F490055A2AF75C936B6CF9676DC1E2
:1002B0001BFCE0E40D47FEF520E6B500D0ED902EE6
:1002C0000300943577050080841E080000204E0A44
:1002D000000000C80C333333330F986E1283114182
:1002E000EF8D2114893BE65516CFFEE6DB18D1844D
:1002F0004B381BF77C1D901DA4BBE4242032847274
:100300005E228100C9F124ECA1E53D27005EBCE23C
:10031000613FDD83C29C7E20A3FD1F41009D23BE63
:1003200046DB65F88C11AF32CA57E9740000C1C0D2
:1003300081C1400101C3C003800241C201C6C006A1
:10034000800741C70005C1C581C4400401CCC00C71
:10035000800D41CD000FC1CF81CE400E000AC1CA31
:1003600081CB400B01C9C009800841C801D8C01821
:10037000801941D9001BC1DB81DA401A001EC1DEA1
:1003800081DF401F01DDC01D801C41DC0014C1D491
:1003900081D5401501D7C017801641D601D2C012B1
:1003A000801341D30011C1D181D0401001F0C03081
:1003B000803141F10033C1F381F240320036C1F6A1
:1003C00081F7403701F5C035803441F4003CC1FC71
:1003D00081FD403D01FFC03F803E41FE01FAC03A31
:1003E000803B41FB0039C1F981F840380028C1E861
:1003F00081E9402901EBC02B802A41EA01EEC02EA1
:10040000802F41EF002DC1ED81EC402C01E4C02490
:10041000802541E50027C1E781E640260022C1E2B0
:1004200081E3402301E1C021802041E001A0C060C0
:10043000806141A10063C1A381A240620066C1A6A0
:1004400081A7406701A5C065806441A4006CC1AC70
:1004500081AD406D01AFC06F806E41AE01AAC06A30
:10046000806B41AB0069C1A981A840680078C1B820
:1004700081B9407901BBC07B807A41BA01BEC07EA0
:10048000807F41BF007DC1BD81BC407C01B4C07490
:10049000807541B50077C1B781B640760072C1B2B0
:1004A00081B3407301B1C071807041B00050C19000
:1004B000819140510193C053805241920196C056A0
:1004C000805741970055C19581944054019CC05C70
:1004D000805D419D005FC19F819E405E005AC19A30
:1004E000819B405B0199C059805841980188C04860
:1004F00080494189004BC18B818A404A004EC18EA0
:10050000818F404F018DC04D804C418C0044C1848F
:10051000818540450187C047804641860182C042AF
:10052000804341830041C18181804040000021001F
:10053000240027002A002D003000330001010000B4
:10054000040107010A0100000A0B02090C0D0E0844
:10055000070304010000000000000000000000008C
:10056000000000000000000000000000000000008B
:100570000000121110000000000000000000000048
:10058000000000000000000000000000000020004B
:100590002300260029002C002F003200000100005B
:1005A00003010601090100002200250028002B009C
:1005B0002E003100340002010000050108010B018A
:1005C00005050505070508080808020202020A0ACF
:1005D00008080404040401010101010101010303ED
:1005E000030303030303040707070C0C0C0C0C0C98
:1005F0000C0C0202020206060606060606060B0B95
:100600000B0B0B0B0B0B01021020200808102040D5
:1006100010204080020102010804020101020408C6
:100620001020408080402010080402018004020154
:10063000804020100804020108040201010204089D
:100640001020408001020408102040803F1ECB345F
:1006500011241FBECFEFD1E2DEBFCDBF00E00CBF43
:1006600017E0A0E0B2E0E6E9FAE700E00BBF02C065
:1006700007900D92A43CB107D9F722E1A4ECB7E0B2
:1006800001C01D92AF3AB207E1F713E0C7E2D3E031
:1006900000E006C021970109802FFE010E94EA3A7E
:1006A000C632D10780E00807A9F70E94ED200C941C
:1006B000393D0C940000FC01A089B18982E08C9343
:1006C000A485B5851C92A685B7858FEC8C93108E7A
:1006D000A489B58986E08C93A289B3898C918061C5
:1006E0008C93A289B3898C9188608C93A289B389F9
:1006F0008C9180688C930288F389E02D80818F7DB6
:10070000808308958230910538F0880F991F880FF3
:10071000991F05970197F1F70895089508950F938C
:100720001F93CF93DF93EC018B011C821B82CB01C3
:100730000E945B0388EF8D83198308831A8288E304
:1007400089A38FEF8AA38BA38CA38DA38EA38FA3E2
:1007500088A71E82DF91CF911F910F91089581503C
:10076000823108F05AC0E82FF0E08827E554FC4FAA
:100770008F4F0C94EA3ADB03DF03CD03D303D70397
:100780000D04E203E803EC03F203F603FA030004AA
:1007900004040D0408040E041204809180008F7775
:1007A000809380000895809180008F7DF9CF8091A3
:1007B0008000877FF5CF84B58F7784BD089584B599
:1007C0008F7DFBCF8091B0008F778093B00008952C
:1007D0008091B0008F7DF9CF809190008F778093CA
:1007E00090000895809190008F7DF9CF80919000C6
:1007F000877FF5CF8091A0008F778093A000089528
:100800008091A0008F7DF9CF8091A000877FF5CFE8
:10081000809120018F77809320010895809120019D
:100820008F7DF9CF80912001877FF5CF1F93CF93E4
:10083000DF93282F30E0F901EA5BFA4F8491F90148
:10084000EA5FF94FD491F901E054FA4FC491CC23F7
:10085000A9F0162F81110E94AF03EC2FF0E0EE0FEC
:10086000FF1FEA55FA4FA591B4918FB7F894EC9118
:10087000111108C0D095DE23DC938FBFDF91CF919B
:100880001F910895DE2BF8CFCF93DF9390E0FC010A
:10089000EA5FF94F249180549A4FFC018491882398
:1008A000C9F090E0880F991FFC01E45DFA4FA59113
:1008B000B491FC01EA55FA4FC591D49161110DC074
:1008C0009FB7F8948C91209582238C93888128235C
:1008D00028839FBFDF91CF910895623051F49FB775
:1008E000F8943C91822F809583238C93E8812E2B62
:1008F000EFCF8FB7F894EC912E2B2C938FBFEACFCC
:10090000863308F0865320917B00982F9870277FBC
:10091000922B90937B008770806480937C00809101
:100920007A00806480937A0080917A0086FDFCCF03
:10093000809178009091790008953FB7F894809164
:100940006C0E90916D0EA0916E0EB0916F0E26B54B
:10095000A89B05C02F3F19F00196A11DB11D3FBFF7
:10096000BA2FA92F982F8827BC01CD01620F711DC6
:10097000811D911D42E0660F771F881F991F4A95C0
:10098000D1F708958F929F92AF92BF92CF92DF924C
:10099000EF92FF926B017C010E949D044B015C0170
:1009A000C114D104E104F104B9F00E949D04681956
:1009B00079098A099B09683E73408105910580F396
:1009C00021E0C21AD108E108F10888EE880E83E020
:1009D000981EA11CB11CE4CFFF90EF90DF90CF9048
:1009E000BF90AF909F908F9008952FB7F89460912B
:1009F000680E7091690E80916A0E90916B0E2FBFF8
:100A00000895DB0114964D915C9115976D917C9141
:100A1000DC01ED91FC910280F381E02D1994AF92FD
:100A2000BF92CF92DF92EF92FF920F931F93CF93DB
:100A3000DF936C017B018B01040F151FEB015E013D
:100A4000AE18BF08C017D10759F06991D601ED91D2
:100A5000FC910190F081E02DC6011995892B79F761
:100A6000C501DF91CF911F910F91FF90EF90DF9023
:100A7000CF90BF90AF900895FC01A089B1898C916F
:100A8000A689B78982FD0FC09C91818D8F5F8F737E
:100A9000228D821749F0A18DAE0FBF2FB11D5D963B
:100AA0009C93818F08958C910895FC01538D448D02
:100AB000252F30E0842F90E0821B930B541710F009
:100AC000CF96089501970895FC01918D828D981716
:100AD00061F0A28DAE0FBF2FB11D5D968C91928DEE
:100AE0009F5F9F73928F90E008958FEF9FEF08951F
:100AF000FC01918D828D981731F0828DE80FF11DE8
:100B0000858D90E008958FEF9FEF0895FC01918D02
:100B1000228D892F90E0805C9F4F821B91098F73FB
:100B20009927089582EF9FE00E94860521E0892B96
:100B300009F420E0822F089588EB90E10E94860559
:100B400021E0892B09F420E0822F08958EE791E1BE
:100B50000E94860521E0892B09F420E0822F089568
:100B600086EE9EE00E94860521E0892B09F420E0B4
:100B7000822F0895FC01A48DA80FB92FB11DA35A8F
:100B8000BF4F2C91848D90E001968F739927848FAD
:100B9000A689B7892C93A089B1898C9183708064D0
:100BA0008C93938D848D981306C00288F389E02D71
:100BB00080818F7D80830895EF92FF920F931F9322
:100BC000CF93DF93EC0181E0888F9B8D8C8D981300
:100BD0001AC0E889F989808185FF15C09FB7F8940C
:100BE000EE89FF896083E889F98980818370806458
:100BF00080839FBF81E090E0DF91CF911F910F91A3
:100C0000FF90EF900895F62E0B8D10E00F5F1F4FB1
:100C10000F731127E02E8C8D8E110CC00FB607FCC0
:100C2000FACFE889F989808185FFF5CFCE010E944E
:100C3000BA05F1CFEB8DEC0FFD2FF11DE35AFF4FFD
:100C4000F0829FB7F8940B8FEA89FB8980818062DC
:100C5000CFCFCF93DF93EC01888D8823B9F0AA8999
:100C6000BB89E889F9898C9185FD03C0808186FD67
:100C70000DC00FB607FCF7CF8C9185FFF2CF8081B6
:100C800085FFEDCFCE010E94BA05E9CFDF91CF916C
:100C9000089580E090E0892B29F00E94B005811131
:100CA0000E94000080E090E0892B29F00E94A605B8
:100CB00081110E94000080E090E0892B29F00E94C1
:100CC0009C0581110E94000080E090E0892B29F0B2
:100CD0000E94920581110C9400000895FC0180850A
:100CE00080FD04C082FB882780F9089580E0089584
:100CF000862F642F0C944404CF93DF93FC01218949
:100D000030E0F901EA5BFA4F8491F901EA5FF94FAB
:100D1000D491F901E054FA4FC491CC2379F08111B8
:100D20000E94AF03EC2FF0E0EE0FFF1FE457FA4FE5
:100D3000A591B491EC91ED2381E009F480E08170FC
:100D4000DF91CF910895CF92DF92EF92FF920F93B0
:100D50001F93CF93DF93EC0188858B7F8887CE012B
:100D60000E947C06182F8885869581701817B9F027
:100D70000E94F5046A837B838C839D83888592E03F
:100D800089278887888582FB882780F9DF91CF9122
:100D90001F910F91FF90EF90DF90CF9008950E94E8
:100DA000F504CA80DB80EC80FD80AB01BC014C19EE
:100DB0005D096E097F098E819F81B0E0A0E0481730
:100DC00059076A077B07F0F2888581701817D1F2FE
:100DD0000E94F5046A837B838C839D83888591E0E0
:100DE0008927846088870E94F50409851A852B85E8
:100DF0003C85601B710B820B930B6D877E878F8701
:100E0000988B0E94F50469877A878B879C87BACF75
:100E1000CF93DF93EC0118860E947C06882319F09B
:100E20008885836088870E94F5046A837B838C832E
:100E30009D83DF91CF9108950895209169083091A5
:100E40006A082817390771F490916808809167083B
:100E5000981741F0E0916808F0E0E95DF74F808174
:100E600090E008958FEF9FEF08950895EF92FF921D
:100E70000F931F93CF93DF93DC015C96ED90FC9072
:100E80005D97E114F10479F481E090E013969C936E
:100E90008E93129790E080E0DF91CF911F910F9198
:100EA000FF90EF9008955196ED91FC9152975096D6
:100EB0008C915097982F90950FB75E962C915E97D6
:100EC000122F127021FD6095F8942081112319F1E1
:100ED000282B2083E7012197F1F728E0462F50E0E7
:100EE000308160FF1AC0382B3083E7012197F1F77A
:100EF000BA0175956795215089F7112381F080819A
:100F0000892380830FBF5C968D919C910197F1F7A7
:100F100081E090E0C1CF2923DCCF3923E5CF908158
:100F2000892BEFCF2091690830916A08281739077B
:100F300061F4809167082091680890E0805C9F4F81
:100F4000821B91098F739927089590E080E008959E
:100F50002091690830916A0828173907B9F49091EF
:100F6000680880916708981789F0E0916808F0E0B8
:100F7000E95DF74F80812091680830E02F5F3F4F97
:100F80002F7333272093680890E008958FEF9FEF29
:100F900008950F931F930E94F5046093521270936B
:100FA000531280935412909355128AE492E10E9456
:100FB000A80797FF1DC00E94F504009152121091DE
:100FC00053122091541230915512601B710B820BF9
:100FD000930B00914E1210914F12209150123091AC
:100FE00051126017710782079307F8F28FEF9FEF96
:100FF0001F910F910895E0916908F0916A08E81730
:10100000F90769F4A389B4899C918589809589231E
:101010008C9310926A081092690881E0089580E02C
:101020000895CF93DF93EC018A8D9B8D892B01F17D
:101030008091690890916A088C179D07C9F0009704
:1010400011F00E94FB078E8D8E7F8E8F10926708A5
:1010500010926808D0936A08C0936908EB89FC89EC
:1010600080819D89892B808381E0DF91CF910895D4
:1010700080E0FBCFFC0183858F3F19F061E00C9489
:1010800016040895FC0180819181892B39F0A28199
:10109000B3819C9111968C919CBD8DBD83858F3FB2
:1010A00019F060E00C9416040895AF92BF92CF92AD
:1010B000DF92EF92FF920F931F93CF93DF93EC0198
:1010C00088819981892B89F06EBD0DB407FEFDCF13
:1010D000BEB48B2DDF91CF911F910F91FF90EF90B8
:1010E000DF90CF90BF90AF9008958885998511E0EB
:1010F000892B09F010E8AA24A394862F812309F0F4
:10110000A12C062F2C813D814E815F8160E271EA26
:1011100087E090E00E94B438F22EB02EE12CC22E6F
:10112000D12CFF2019F0C6010E9482038A85877F97
:1011300009F042C08D858F3F89F0902F912381E087
:1011400009F480E08A1551F0EF85F8898F89992399
:1011500069F19081892B8083AA24A394E989FA8973
:101160008081998D892B8083FF2019F0C6010E9410
:1011700082038E858F3F39F0EB89FC898081988DC1
:10118000892309F0E12AE989FA899081898D80957E
:10119000892380838E858F3F09F0BE2C88859985B1
:1011A000892BB9F5110F1111BCCF93CF9081809588
:1011B00089238083A12CD2CFE989FA898081998DF6
:1011C000892B8083FF2019F0C6010E9482038D8540
:1011D0008F3F49F0EF85F8898F89902F9123A9F0EF
:1011E0009081892B8083E989FA899081898D809506
:1011F000892380838E858F3F69F2EB89FC8980810A
:10120000988D892339F2E12AC5CF90818095892371
:10121000E9CF1695C8CFCF92DF92EF92FF920F934E
:101220001F93CF93DF93EC016B018A0179010E9438
:101230004208F6016081CE010E9455086FEFCE0191
:101240000E945508F8018083EA94EF2831F06FEF8F
:10125000CE010E945508F8018183CE010E943A0810
:1012600081E0DF91CF911F910F91FF90EF90DF9080
:10127000CF90089508952091EB07260F3327331F51
:1012800021323105ECF42091BC0EFC0190E080E0AD
:10129000243069F082E00895A091EB072191AC0120
:1012A0004553584FA40FB52FB11D2C9301968617A7
:1012B00098F38091EB07680F6093EB0780E0089547
:1012C00081E008951092BC0E81E08093BB0E1092D5
:1012D000960E61E084E10E94160461E085E10E94BF
:1012E0001604E9EBF0E080818E7F808380818D7F22
:1012F000808388E48093B80085E48093BC000895DF
:101300001092750E1092740E1092C30E1092E50E8C
:101310000E9462098DE893E09093730E8093720EA1
:101320008EE893E09093710E8093700E0895CF93A2
:10133000DF9391E09093CA078823B9F0C091B80079
:10134000D091BA008091BC008A7B8093BC0060E0A1
:1013500084E10E94160460E085E10E9416040E9468
:101360006209D093BA00C093B800DF91CF9108957D
:101370008F929F92AF92BF92CF92DF92EF92FF92A5
:101380000F931F93CF93DF93D091E50ED13208F0E6
:10139000D7C0182FC091E40E0E949D046B017C0100
:1013A0008091BC0E81116BC082E08093BC0E1093C3
:1013B000BB0E8FEF8093BA0E1092B90ED093B80E79
:1013C000A4ECBEE0E8E9FEE080E0D81391C0109202
:1013D000970E8091970ECC0FC82BC093970E8091DB
:1013E000960E813009F088C01092960E0E949D04DE
:1013F0006B017C018091970E8093BB008091BE0EA3
:101400009091BF0EA091C00EB091C10E892B8A2B76
:101410008B2BA1F00E949D040091BE0E1091BF0E77
:101420002091C00E3091C10E6C197D098E099F0963
:10143000061717072807390708F442C08091BC0037
:1014400083FDD8CF85EC8093BC000E949D046B0186
:101450007C018091BC0E823009F450C08091BA0E9C
:101460008F3F09F46FC08091BA0E803209F46CC0CE
:101470008091BA0E803309F469C084E026C080915F
:10148000BE0E9091BF0EA091C00EB091C10E892BDF
:101490008A2B8B2B09F484CF0E949D048090BE0E72
:1014A0009090BF0EA090C00EB090C10E6C197D0937
:1014B0008E099F0986169706A806B90608F070CF10
:1014C0008091BD0E0E94970985E01092C30E109284
:1014D000E50E1092C20EDF91CF911F910F91FF90F8
:1014E000EF90DF90CF90BF90AF909F908F90089536
:1014F0009D9191938F5F69CF85EEA5CF8091BE0EB0
:101500009091BF0EA091C00EB091C10E892B8A2B75
:101510008B2B09F49ECF0E949D040091BE0E10916A
:10152000BF0E2091C00E3091C10E6C197D098E093D
:101530009F09061717072807390708F08ACFC0CF79
:1015400081E0C3CF80E0C1CF82E0BFCF83E0BDCFD9
:10155000CF93DF93EC018B818823A1F0888191E008
:101560009093C20E8093E40E1092C30E1092E50E7B
:1015700081E00E94B80991E0811190E0892FDF910C
:10158000CF9108950E94800981E08B83CE010E9453
:10159000A80A982F8111E2CFF1CFE091750E8091CA
:1015A000740EE81730F4F0E0EA58F14F808190E0D3
:1015B00008958FEF9FEF08959091750E8091740EAE
:1015C0002FEF3FEF981748F4E92FF0E0EA58F14F7A
:1015D000208130E09F5F9093750EC901089580913E
:1015E000740E9091750E891B990B0895CF92DF921E
:1015F000EF92FF920F931F93CF93DF937C01CB0168
:101600008A012091C20E222389F0EB016B01C40EE6
:10161000D51ECC15DD0569F06991D701ED91FC91DE
:101620000190F081E02DC7011995F3CF642F0E943E
:101630003B09C801DF91CF911F910F91FF90EF906F
:10164000DF90CF900895CF93DF931F92CDB7DEB791
:1016500069832091C20E2223F9F02091E50E2032F9
:1016600058F021E030E0FC013383228390E080E0F9
:101670000F90DF91CF9108958091C30EE82FF0E095
:10168000EC53F14F998190838F5F8093C30E8093C9
:10169000E50E81E090E0ECCF61E0CE0101960E9482
:1016A0003B09F7CFFC01248131E03093C20E209337
:1016B000E40E1092C30E1092E50E8385682B83E82A
:1016C0009FE00E94230B81E00C94B80990E080E039
:1016D0000895DC0180E0615090F09D919827E92FFA
:1016E000EF70F0E0E45FFC4F2491E92FE295EF709A
:1016F000F0E0E45EFC4FE491822F8E27ECCF08955A
:10170000DC012C911196ED91FC91F8948181822B52
:1017100081839281322F30959323928387E090E0EA
:101720000197F1F781818323818383E290E0019720
:10173000F1F790817894EFECF0E03197F1F7922394
:1017400081E009F480E00895FC0190810180F2813C
:10175000E02D292F209560FF14C0F8948281822308
:1017600082838181892B8183A3E2B0E01197F1F715
:101770008281982B9283789487ED90E00197F1F71E
:101780000895F8948281822382838181892B8183C9
:10179000AFEFB0E01197F1F78281982B92837894A4
:1017A0008FE090E0EBCFDF92EF92FF920F931F93C9
:1017B000CF93DF93EC01D62EE42E08E010E0FF2457
:1017C000F39461E08D2D8F2109F460E0CE010E9439
:1017D000A40BFF0C01501109A1F7E11010C0F894FF
:1017E000E981FA8191818881809589238183E981CA
:1017F000FA81928188818095892382837894DF9110
:10180000CF911F910F91FF90EF90DF900895EF928D
:10181000FF920F931F93CF93DF938C017B0140E0E6
:1018200065E50E94D30BE70188E0E80EF11C6991A1
:1018300040E0C8010E94D30BCE15DF05C1F7DF9150
:10184000CF911F910F91FF90EF900895FC0190812F
:101850000180F281E02DF8948181292F2095822347
:10186000818378943DE743E050E0315029F1DA017B
:101870001197F1F780818923C1F3F8948281822343
:1018800082838181892B81837894ABE7B7E01197BC
:10189000F1F7F894818182238183A3E1B1E011976C
:1018A000F1F78081982381E009F080E07894E3E605
:1018B000F6E03197F1F7089580E008956F927F92F6
:1018C0008F929F92AF92BF92CF92DF92EF92FF9250
:1018D0000F931F93CF93DF938C01EB018091D60F71
:1018E0009091D70F0E94260C882309F43FC0B801BD
:1018F0008091D60F9091D70F0E94070C40E06EEBBD
:101900008091D60F9091D70F0E94D30B7E016E016C
:1019100089E0C80ED11C8E01A090D60FB090D70FD1
:1019200088E0882E912C712C66246394C5010E9456
:10193000800B81117628660CE1E08E1A9108B1F7D0
:10194000F80171928F01CE16DF0631F78091D60F24
:101950009091D70F0E94260C813041F4F7018191BC
:101960007F01811105C0E017F107C1F790E008C0C1
:1019700068E0CE010E94690B91E028852813F6CF1C
:10198000892FDF91CF911F910F91FF90EF90DF9002
:10199000CF90BF90AF909F908F907F906F90089561
:1019A0004F925F926F927F92AF92BF92CF92DF92EF
:1019B000EF92FF920F931F93CF93DF9300D000D04D
:1019C0001F921F92CDB7DEB72B013C012D833E83C2
:1019D0004F835887E982FA820B831C830E94663703
:1019E00087FDD5C02A8D3B8D4C8D5D8DC301B20125
:1019F0000E94FA3918160CF4CAC0A8019701C30155
:101A0000B2010E94663787FF51C02D813E814F8110
:101A10005885C301B2010E94E5382B013C012D819C
:101A20003E814F815885C801B7010E94E5389B016E
:101A3000AC01C301B2010E94523920E030E048EC11
:101A400052E40E94CC370E94C4399B01AC01A5E44A
:101A5000B0E00E94A93824E630E040E050E00E9467
:101A60008A38CA01B9010E946D372E8D3F8D48A179
:101A700059A10E94CC3720E030E040E251E40E94BE
:101A8000523928960FB6F894DEBF0FBECDBFDF9156
:101A9000CF911F910F91FF90EF90DF90CF90BF906B
:101AA000AF907F906F905F904F900895A601950141
:101AB000C301B2010E94FA3918161CF5A60195015E
:101AC000C301B2010E94E5382B013C01A60195013A
:101AD0006A8D7B8D8C8D9D8D0E94E5389B01AC01BC
:101AE000C301B2010E94523920E030E048EC52E4D8
:101AF0000E94CC370E94C4399B01AC01A2E3B0E044
:101B0000A8CF29813A814B815C81C301B2010E9437
:101B1000FA3987FD3BC0A6019501C301B2010E94BD
:101B2000663718169CF129813A814B815C81C3018B
:101B3000B2010E94E5382B013C0129813A814B8199
:101B40005C81C601B5010E94E5389B01AC01C3016F
:101B5000B2010E94523920E030E048EC52E40E9489
:101B6000CC370E94C4399B01AC01AEE1B0E00E94C9
:101B7000A93824E630E040E050E00E948A38CA01EB
:101B8000B9016A5B7F4F8F4F9F4F6DCF7ACF60E077
:101B900070E0CB0176CF60E08CE10C9416042F92BC
:101BA0003F924F925F926F927F928F929F92AF92ED
:101BB000BF92CF92DF92EF92FF920F931F93CF933A
:101BC000DF935C011B016A01F12CE12CD501149615
:101BD0008D919C9186010E191F098017910708F4B9
:101BE0008C01F501D0810E949D042B013C01809164
:101BF000BC0E811172C0C02F013208F0C0E2F1E0CA
:101C0000F093BC0E21E0C601801B910BE816F9068B
:101C100008F420E02093BB0E8FEF8093BA0E109251
:101C2000B90E8C0F8093B80EA1E0A093970E80910F
:101C3000970EDD0FD82BD093970E8091960E8130A2
:101C400009F090C01092960E0E949D042B013C0159
:101C50008091970E8093BB008091BE0E9091BF0E35
:101C6000A091C00EB091C10E892B8A2B8B2BA1F0B5
:101C70000E949D042091BE0E3091BF0E4091C00E77
:101C80005091C10E641975098609970926173707FF
:101C90004807590708F442C08091BC0083FDD8CFA3
:101CA000B5ECB093BC000E949D042B013C018091D7
:101CB000BC0E813009F45AC08091B90E8C1710F413
:101CC000C091B90EA8E9BEE0E6E7FEE080E08C171F
:101CD00051F19D9191938F5FFACF8091BE0E9091BB
:101CE000BF0EA091C00EB091C10E892B8A2B8B2BF9
:101CF00009F47DCF0E949D042091BE0E3091BF0E4D
:101D00004091C00E5091C10E64197509860997095A
:101D1000261737074807590708F069CF8091BD0E8D
:101D20000E949709C0E01092750EC093740EC01700
:101D3000110609F057C041018E0C9F1CE401CE0131
:101D4000881999098017910798F5D50111968D91F9
:101D50009C91DC01ED91FC910284F385E02D1995B5
:101D60008993EDCFE5EEE093BC009DCF8091BE0E50
:101D70009091BF0EA091C00EB091C10E892B8A2BFD
:101D80008B2B09F494CF0E949D042091BE0E3091BC
:101D9000BF0E4091C00E5091C10E6419750986099D
:101DA0009709261737074807590708F080CFB6CF9D
:101DB000E00EF11EEC14FD0408F408CF81E0DF9181
:101DC000CF911F910F91FF90EF90DF90CF90BF9038
:101DD000AF909F908F907F906F905F904F903F90CB
:101DE0002F90089580E0EBCFCF93DF93DC01149622
:101DF0002D913C912417350710F490E01EC0EA01A4
:101E0000FC0181819281208131E03093C20E2093C8
:101E1000E40E1092C30E1092E50EDC01ED91FC91E0
:101E20000280F381E02D1995C817D90731F781E0B9
:101E30000E94B80991E08111E0CF892FDF91CF9105
:101E400008950F931F93CF93DF931F921F92CDB7E7
:101E5000DEB789836A838091C30F9091C40F009786
:101E600071F042E050E0BE016F5F7F4F0E94F40EC0
:101E70000F900F90DF91CF911F910F9108950091D6
:101E8000C50F1091C60FC8010E9442086981C801A0
:101E90000E9455086A81C8010E945508C8010E9425
:101EA0003A08E6CFCF93DF931F92CDB7DEB7282F46
:101EB0008091C30F9091C40F009709F42068298383
:101EC0000097B9F041E050E0BE016F5F7F4F0E9484
:101ED000F40E41E050E0BE016F5F7F4F8091C30F71
:101EE0009091C40F0E94CF0D89810F90DF91CF9107
:101EF000089521E030E0AE014F5F5F4FBA0180915D
:101F0000C50F9091C60F0E940B09EECF0F931F9340
:101F1000CF93DF931F921F92CDB7DEB78C011A8249
:101F20001982FC0182819381009709F4606C6983B6
:101F30000097D1F041E050E0BE016F5F7F4F0E94FB
:101F4000F40E42E050E0BE016F5F7F4FF8018281E6
:101F500093810E94CF0D89819A810F900F90DF911C
:101F6000CF911F910F91089522E030E0AE014F5FB5
:101F70005F4FBA01F801848195810E940B09EBCF74
:101F8000BF92CF92DF92EF92FF920F931F93CF9366
:101F9000DF93EC01B62EC72E8D85811105C0CE01D1
:101FA0000E94260C81110EC01B861D861C8680E0B7
:101FB000DF91CF911F910F91FF90EF90DF90CF9025
:101FC000BF90089540E060EFCE010E94D30B01E086
:101FD000E12CD12C11E0CE010E94800BF82ECE0115
:101FE0000E94800B91E0F91218C0813099F51134EC
:101FF000D8F2DB86D11002C081E08D878B818823E7
:1020000099F22396EB2DFC2DCF010896299121936F
:10201000E817F907D9F781E0CBCFEE2DF0E0F81201
:102020000FC08B851817A0F4DE01AE0FBF1F1396EB
:102030008C91802379F4F12C193008F41C87D12E6F
:10204000EC0FFD1F8381902F9095892383830AC015
:102050008113F1CFFE01EE0DF11D8381802B83836F
:10206000FF24F3946F2DCE010E94A40B1F5F000F7D
:1020700011F4E39401E087E08E1508F0ACCFB7CF00
:102080000F931F93CF938C01C62F0E94520B6C2F7E
:102090006460C8010E94520B6C2F6B7FC8010E94C4
:1020A000520B83EC90E00197F1F7CF911F910F91C4
:1020B00008950F931F93CF93DF938C01D62FC42FD6
:1020C000607F642B0E94401080E1D89FB0011124F2
:1020D0006C2BC801DF91CF911F910F910C94401090
:1020E000CF93DF9300D000D01F921F92CDB7DEB701
:1020F00098E0EEE3F2E0DE01119601900D929A95E0
:10210000E1F790917112961710F46FEF690F262F77
:1021100030E0220F331F41E050E04C0F5D1F240FD1
:10212000351FF9016081680F606840E089E692E13F
:1021300028960FB6F894DEBF0FBECDBFDF91CF91CA
:102140000C94591040E061E089E692E10E94591038
:102150008BE39FE10197F1F7089541E00E94591048
:1021600081E090E008954F925F926F927F928F92FC
:102170009F92AF92BF92CF92DF92EF92FF920F9316
:102180001F93CF93DF93CDB7DEB760970FB6F89468
:10219000DEBF0FBECDBF4C01DC0191962C91919713
:1021A00092963C91929793964C91939794965C91CA
:1021B000949795966C91959796967C91969797960D
:1021C0008C91979798969C9128533F4F4F4F5F4F14
:1021D0006F4F7F4F8F4F9F4FB22EC32ED42EA52E01
:1021E000762E672E582E492E0E94F5047B018C0115
:1021F00020E030E0A9016987FA868B871C872D874C
:102200003E874F87588B2B2D3C2D4D2D5A2D672DFA
:10221000762D852D942D57016801E12CF12C00E0DD
:1022200010E00E94F23A11F008F070C1D401159646
:102230008C91898384E08A831B821C821D828AE0C0
:102240008E83DE0111969E01295F3F4F4FEF5FEFB6
:10225000BD01852F9927A217B30761F0ED91E427FF
:10226000F0E0EE0FFF1FE45DFC4F459154914827CD
:102270005927EFCF4F838887F40180819181DC015A
:10228000ED91FC910280F381E02D48E050E019953A
:10229000F4018281882321F0808191810E941108BC
:1022A0000E94F5042B013C01BEE0EB2EB8E0FB2EB2
:1022B000670110E000E009311105D9F4C801029767
:1022C00098016FEF7FEF215031092130310509F47A
:1022D00041C0D701ED917D01472F5527E627F0E05A
:1022E000EE0FFF1FE45DFC4F659174916427752725
:1022F000EACF0E94F50464197509860997096436C6
:10230000710581059105E8F4D4018D919C91DC0162
:10231000ED91FC910084F185E02D199518161906B0
:1023200054F6D4018D919C91DC01ED91FC910284D5
:10233000F385E02D1995F60181936F010F5F1F4F13
:10234000BACF0330110508F0B9CFD40116961C920C
:1023500080E0DDC0F801E35FF74F2081825F974F97
:10236000FC018081922F8617970779F781E0F401AD
:1023700086830931110561F7609111087091120887
:1023800076276727762790E080E00E946B3720E071
:1023900030E040E251E40E945239D40117966D9327
:1023A0007D938D939C931A97209113086091150843
:1023B00070E090E080E0962F882777276627722BC1
:1023C00020911408622B20911608822B0E946B37F3
:1023D00020E030E04AE754E40E945239F401638778
:1023E000748785879687209117086091190870E097
:1023F00090E080E0962F882777276627722B209120
:102400001808622B20911A08822B0E946B3720E05B
:1024100030E040E251E40E945239D4011F966D939E
:102420007D938D939C93529720911B0860911D087A
:1024300070E090E080E0962F882777276627722B40
:1024400020911C08622B20911E08822B0E946B3762
:1024500020E030E04AE754E40E945239F401638BF3
:10246000748B858B968B60911F087091200876275E
:102470006727762790E080E00E946B3720E030E00D
:1024800040E251E40E945239D40157966D937D93F6
:102490008D939C935A97609121087091220876271A
:1024A0006727762790E080E00E946B3720E030E0DD
:1024B00048EC52E40E945239F401638F748F858F87
:1024C000968F809123089091240898278927982730
:1024D00090A3878F0E94F5048B019C01D4019196F3
:1024E0006C93919792961C93929793968C93939753
:1024F00094963C93949795961C92959796961C92D9
:10250000969797961C92979798961C9281E0609662
:102510000FB6F894DEBF0FBECDBFDF91CF911F91F4
:102520000F91FF90EF90DF90CF90BF90AF909F9072
:102530008F907F906F905F904F900895FB01019076
:102540000020E9F73197AF01461B570BDC01ED91F5
:10255000FC910280F381E02D19948F929F92AF92AB
:10256000BF920F931F93CF93DF93CDB7DEB7A197A1
:102570000FB6F894DEBF0FBECDBF19A2423008F4EB
:102580004AE08E010F5D1F4F842E912CB12CA12C9F
:10259000A50194010E94B438E62FB901CA01EA30BE
:1025A00004F5E05DD801EE938D01232B242B252B20
:1025B00079F790E080E0109729F0BD0186EE9EE06B
:1025C0000E949E12A1960FB6F894DEBF0FBECDBF3B
:1025D000DF91CF911F910F91BF90AF909F908F90FF
:1025E0000895E95CDFCFCF93DF93BC0186EE9EE0D8
:1025F0000E949E12EC0164EA72E086EE9EE00E9468
:102600009E128C0F9D1FDF91CF9108954F925F9284
:102610006F927F928F929F92AF92BF92CF92DF92F2
:10262000EF92FF920F931F93CF936B017C01742E57
:10263000AC019B010E94953A67EA72E0811126C0C5
:1026400046015701E894B7F82FEF3FEF4FE75FE7F8
:10265000C501B4010E94953A81110CC02FEF3FEFE4
:102660004FE75FE7C501B4010E9466376BEA72E08D
:10267000181664F02FEF3FEF4FE75FE4C701B60194
:102680000E94FA391816ACF46FEA72E086EE9EE00A
:10269000CF911F910F91FF90EF90DF90CF90BF905F
:1026A000AF909F908F907F906F905F904F900C9421
:1026B0009E122FEF3FEF4FE75FECC701B6010E947C
:1026C000663787FDE1CF20E030E0A901C701B60100
:1026D0000E94663710E000E087FF0AC06DE286EED8
:1026E0009EE00E94DC058C01F7FAF094F7F8F09474
:1026F000C0E060E070E080E09FE37C1641F020E005
:1027000030E040E251E40E945239CF5FF6CFA7019A
:1027100096010E94E6382B013C010E94CB394B0107
:102720005C014AE00E94AD127C01E00EF11ECC2358
:10273000C1F1C501B4010E946B379B01AC01C3011B
:10274000B2010E94E5384B015C016EE286EE9EE02C
:102750000E94DC05E80EF91EC15018F120E030E0BF
:1027600040E251E4C501B4010E94CC372B013C0189
:102770000E94CB394B01B12CA12C4AE0C501B40118
:102780000E94AD12E80EF91EC501B4010E946B371C
:102790009B01AC01C301B2010E94E5384B015C0111
:1027A000DBCFC701CF911F910F91FF90EF90DF908A
:1027B000CF90BF90AF909F908F907F906F905F90E1
:1027C0004F900895CF93DF9342E00E940613EC01EF
:1027D00064EA72E086EE9EE00E949E128C0F9D1FBE
:1027E000DF91CF9108950F931F93CF93DF93EC0167
:1027F0000E9401058C0164EA72E0CE010E949E12E3
:10280000800F911FDF91CF911F910F9108950C942C
:102810009E12CF92DF92EF92FF920F931F93CF936E
:10282000DF93EC018C0100571E4FC12CD12C760197
:1028300069917991899199919B01AC010E94CC3762
:102840009B01AC01C701B6010E94E6386B017C0117
:102850000C171D0769F720E030E048EC52E40E94B5
:102860005239DF91CF911F910F91FF90EF90DF9040
:10287000CF900C94553A2F923F924F925F926F9265
:102880007F928F929F92AF92BF92CF92DF92EF9200
:10289000FF920F931F93CF93DF93CDB7DEB7A4972B
:1028A0000FB6F894DEBF0FBECDBF9CA38BA38EE501
:1028B00080937C0080917B00877F80937B0062E027
:1028C00070E080E090E00E94C20480917A00806411
:1028D00080937A0080917A0086FDFCCF8091780009
:1028E0002091790030E0322F2227032E000C440B78
:1028F000550B282B60E070E381E190E00E948A385C
:102900002F8B388F498F5A8F0E94F5044B015C0141
:102910006BA07CA028E5620E711CABA1BCA15496F3
:102920008C910E948004F30191838083BC01990FF4
:10293000880B990B0E946D376B017C012DEC3CECF0
:102940004CE054E40E94663787FF0BC011E026E696
:1029500036E646EE53E4C701B6010E94FA3918166E
:102960000CF010E00E94F504681979098A099B09A6
:10297000613D77408105910510F4112371F20E94A9
:10298000F5046B8B7C8B8D8B9E8B10E000E01C82A2
:102990001B822BA13CA1205C3F4F3C8F2B8F4BA176
:1029A0005CA14C5B5F4F5E874D878BA19CA1885BD0
:1029B0009F4F9E8F8D8FABA1BCA1A45BBF4FB88BE7
:1029C000AF87EBA1FCA1E05BFF4FF8A3EF8F2BA13A
:1029D0003CA12C5A3F4F3A8B298B4BA15CA1465A04
:1029E0005F4F58874F838BA19CA1855A9F4F9A8335
:1029F0008983ABA1BCA1A85ABF4FBAA3A9A30E94C7
:102A0000F5042B893C894D895E89621B730B840B0D
:102A1000950B603D77408105910508F027C10F5F58
:102A20001F4FEBA1FCA184A595A5A6A5B7A580A7DE
:102A300091A7A2A7B3A784890E948004ABA1BCA1DF
:102A400095969C938E93949756968C910E948004B1
:102A50009C878B87EBA1FCA197A386A384A895A84C
:102A6000A6A8B7A824A035A0B101032C000C880BA0
:102A7000990B0E946D376B017C01A50194010E94A6
:102A8000E53820E030E040E85AE30E94CC37A50169
:102A900094010E94E6389B01AC01ABA1BCA1D49685
:102AA0002D933D934D935C93D797C701B6010E9438
:102AB000E5384B015C01EBA1FCA184A695A6A6A676
:102AC000B7A640AC51AC62AC73AC2B853C85B90168
:102AD000330F880B990B0E946D376B017C01A301AA
:102AE00092010E94E53820E030E040E85AE30E947D
:102AF000CC37A30192010E94E6389B01AC01ABA147
:102B0000BCA1D8962D933D934D935C93DB97C70161
:102B1000B6010E94E5386B017C01EBA1FCA1C0AAC3
:102B2000D1AAE2AAF3AAA5019401C501B4010E94A9
:102B3000CC379B01AC01AB8DBC8D2D933D934D9358
:102B40005C931397ED85FE8560817181828193810D
:102B50000E94E638AD85BE856D937D938D939C93E1
:102B60001397A7019601C701B6010E94CC379B01BC
:102B7000AC01ED8DFE8D2083318342835383AF857D
:102B8000B8896D917D918D919C910E94E638EF8579
:102B9000F8896083718382839383ABA1BCA19896EB
:102BA0004D905D906D907C909B97A3019201C50123
:102BB000B4010E94E538EBA1FCA120A131A142A102
:102BC00053A10E94CC37A30192010E94E6389B01D9
:102BD000AC01ABA1BCA1DC962D933D934D935C93CE
:102BE000DF97C701B6010E94CC379B01AC01EF8D86
:102BF000F8A12083318342835383A989BA896D91D7
:102C00007D918D919C910E94E638E989FA896083D3
:102C1000718382839383A981BA818C91EF81F88536
:102C20008083A9A1BAA18D919C91821593050CF086
:102C3000FBC021E0E981FA812083E981FA8180816A
:102C40000130110519F4AF81B8858C93EF81F885B7
:102C50009081981731F02B813C812F5F3F4F3C834F
:102C60002B83EB81FC81749709F0C9CE4F89588D75
:102C7000BA01550F880B990B0E946D3720E030E0A8
:102C80004AE754E40E94523920E030E040E85AE339
:102C90000E94CC372B013C01ABA1BCA158962D91D1
:102CA0003D914D915C915B970E94CC374B015C014B
:102CB000B80190E080E00E946B376B017C01EBA1D2
:102CC000FCA1EC5BFF4FFA83E983AC019B016081BF
:102CD0007181828193810E9452390E94553A9B01F1
:102CE000AC01C501B4010E94CC376B837C838D831A
:102CF0009E83ABA1BCA11C966D937D938D939C93F9
:102D00001F975C962D913D914D915C915F97C3010A
:102D1000B2010E94CC372B013C010BA11CA1045B2A
:102D20001F4FA7019601F801608171818281938113
:102D30000E9452390E94553A9B01AC01C301B20175
:102D40000E94CC376F83788789879A87ABA1BCA113
:102D500050966D937D938D939C9353971D01B4E58D
:102D60002B0E311CA3019201C501B4010E94CC3786
:102D7000F10120813181428153810E94CC37A7012A
:102D800096010E9452396B017C01ABA1BCA1CD928E
:102D9000DD92ED92FC9213972F81388549855A85F3
:102DA0006B817C818D819E810E94CC379B01AC011F
:102DB000EBA1FCA12483358346835783C701B60169
:102DC0000E945239ABA1BCA118966D937D938D934F
:102DD0009C931B97E981FA811082118212821382DF
:102DE000D8011D921D921D921C921397F101108221
:102DF000118212821382A4960FB6F894DEBF0FBE22
:102E0000CDBFDF91CF911F910F91FF90EF90DF9099
:102E1000CF90BF90AF909F908F907F906F905F907A
:102E20004F903F902F900895A981BA811C9205CFB1
:102E3000CF93DF93EC0188819981009711F00E9474
:102E4000AB3B198218821D821C821B821A82DF9181
:102E5000CF910895CF93DF93FC01C381D481209754
:102E600061F082E892E099838883CE010E94FB079B
:102E7000CE01DF91CF910C94AB3BDF91CF910895C0
:102E8000FC0180819181009711F00C94AB3B089577
:102E9000CF93DF93EC0184E792E0998388838A8162
:102EA0009B81009711F00E94AB3B0C80DD81C02D0F
:102EB000209759F08A819B81009711F00E94AB3BCB
:102EC000CE01DF91CF910C94AB3BDF91CF91089570
:102ED000CF93DF93EC010E944817CE01DF91CF9191
:102EE0000C94AB3B0E94153D0F931F93CF93DF9340
:102EF000EC0188819981009759F02A813B8126173E
:102F0000370730F081E0DF91CF911F910F91089545
:102F10008B016F5F7F4F0E94343C009759F099837B
:102F200088831B830A832C813D81232B59F7FC0165
:102F30001082E8CF80E0E7CFEF92FF920F931F93CC
:102F4000CF93DF936115710541F480E0DF91CF915C
:102F50001F910F91FF90EF90089541155105B1F029
:102F60007B01EC010C811D81040F151FB8010E942B
:102F70007417882351F3288139818C819D81B70191
:102F8000820F931F0E94233D1D830C8381E0DECFBF
:102F9000CF93DF93EC01FB0101900020E9F731971B
:102FA000AF01461B570B0E949C17811103C0CE0135
:102FB0000E941817CE01DF91CF910895CF93DF9330
:102FC000EC01FB0144815581608171810E949C1755
:102FD000811103C0CE010E941817CE01DF91CF915D
:102FE0000895EF92FF920F931F93CF93DF93EC011D
:102FF0007B018A01BA010E94741781110BC0CE01B6
:103000000E941817CE01DF91CF911F910F91FF9071
:10301000EF9008951D830C83B701888199810E94E8
:10302000233DF0CFEF92FF920F931F93CF93DF9347
:10303000CDB7DEB7A1970FB6F894DEBF0FBECDBFF8
:103040007C01CB01BA01F701118210821382128236
:10305000158214828E010F5F1F4F22E044E00E9410
:10306000F7340097C9F0FC0101900020E9F731978F
:10307000AF01481B590BBC01C7010E94F117A19673
:103080000FB6F894DEBF0FBECDBFDF91CF911F9179
:103090000F91FF90EF900895C7010E941817EFCF8E
:1030A000FC01118210821382128215821482FB01AC
:1030B00001900020E9F73197AF01461B570B0C94A4
:1030C000F117FF920F931F93CF93DF93CDB7DEB726
:1030D0002C970FB6F894DEBF0FBECDBF0E94A21092
:1030E00060E080E00E9470108091650E9091660E05
:1030F00026E0F22EF89EB001F99E700D1124615762
:10310000704F89E692E10E9401050091650E1091D1
:10311000660EF09EF001F19EF00D1124E157F04F84
:1031200060E084810E947010000F111F000F111FBA
:10313000F801E05FFD4F4081518162817381CE01D2
:1031400007960E94121864E777E0CE0101960E946C
:103150005018BE01695F7F4FCE0101960E94DE17B5
:10316000BC0189E692E10E940105CE0101960E9410
:103170004017CE0107960E944017E091650EF0912E
:10318000660EE830F105A0F48827E653F74E8F4F1E
:103190000C94EA3AD218D218F818D218F818FB187A
:1031A000FE18071963EB72E089E692E10E940714AA
:1031B00062E080E00E9470106EEB72E089E692E1BE
:1031C0000E94071463E080E00E94701062ED72E0DC
:1031D00089E692E10E9407142C960FB6F894DEBFA0
:1031E0000FBECDBFDF91CF911F910F91FF9008953A
:1031F00065EB72E0D9CF67EB72E0D6CF41E06FEDBF
:1032000089E692E10E9459106AEB72E0CDCF6CEB37
:1032100072E0CACFCF92DF92EF92FF920F931F938B
:10322000CF93DF93CDB7DEB72C970FB6F894DEBF00
:103230000FBECDBF2091C8073091C90726173707A9
:1032400009F06BC08C010E94F504C090C407D090B7
:10325000C507E090C607F090C7076C197D098E0975
:103260009F096C3D75408105910508F456C0B80171
:103270008AE492E10E94F313B80186EE9EE00E9478
:10328000F3138AE492E10E949207892B81F166EAA6
:1032900072E0CE0107960E9450180E94C90797FD60
:1032A0000CC089831A8241E050E0BE016F5F7F4FFE
:1032B000CE0107960E949C17F0CF6EED72E0CE0112
:1032C00001960E945018BE01695F7F4FCE010196A2
:1032D0000E94DE17BC0186EE9EE00E94F313CE0131
:1032E00001960E944017CE0107960E9440170E9447
:1032F000F5046093C4077093C5078093C607909345
:10330000C7078091C8079091C9070196843091053D
:103310009CF49093C9078093C8072C960FB6F89435
:10332000DEBF0FBECDBFDF91CF911F910F91FF90F8
:10333000EF90DF90CF9008951092C9071092C807C0
:10334000ECCF0F931F93CF93DF9300D000D01F9249
:103350001F92CDB7DEB78C0167EE72E0CE01019609
:103360000E94501870E060E0CE0101960E940A1998
:10337000CE0101960E94401761EF72E0CE010196E6
:103380000E94501864E472E1CE0101960E94DE179B
:1033900069EF72E00E94C81761E070E00E940A19AC
:1033A000CE0101960E94401762E070E0C8010E94C1
:1033B0000A191A8219821C821B821E821D828AE1CE
:1033C0008F831886BE01695F7F4FFB01019000204B
:1033D000E9F73197AF01461B570BCE0101960E94CA
:1033E000F11763E070E0CE0101960E940A19CE0148
:1033F00001960E94401728960FB6F894DEBF0FBEC4
:10340000CDBFDF91CF911F910F9108950F931F931F
:10341000CF93DF938C01EB0188E2FB0111928A9537
:10342000E9F74BE050E06BEF72E0CE010E942A3DDD
:103430001B8681E090E0A0E0B0E08C879D87AE879E
:10344000BF87F8014681578160857185488B598B0C
:103450006A8B7B8B8C8B9D8BAE8BBF8B1CA21DA232
:103460001EA21FA28AE098EEACE1B3EC888F998F80
:10347000AA8FBB8F8AE098EEACE1B3E48C8F9D8F6E
:10348000AE8FBF8F83EA9FEAA0E2BDE388A399A332
:10349000AAA3BBA3DF91CF911F910F9108950F9322
:1034A0001F93CF93DF938C01EB01FB01349680E2F5
:1034B000DF011D928A95E9F784E290E0A0E0B0E098
:1034C00088839983AA83BB83F80186819781A0852D
:1034D000B1858C839D83AE83BF8381E090E0A0E0C3
:1034E000B0E088879987AA87BB87188A198A1A8AC1
:1034F0001B8A62E3C8010E94860FBC01990F880BEA
:10350000990B0E946D372FE632E143E85BE30E949E
:10351000CC372AE038EE4CE151E40E94CC376C8B7A
:103520007D8B8E8B9F8B64E3C8010E94860FBC014C
:10353000990F880B990B0E946D372FE632E143E813
:103540005BE30E94CC372AE038EE4CE151E40E9464
:10355000CC37688F798F8A8F9B8F66E3C8010E9472
:10356000860FBC01990F880B990B0E946D372FE6CF
:1035700032E143E85BE30E94CC372AE038EE4CE1CD
:1035800051E40E94CC376C8F7D8F8E8F9F8F81E0AE
:10359000DF91CF911F910F91089585ED8093BC002D
:1035A0008091BE0E9091BF0EA091C00EB091C10E41
:1035B0000796A11DB11D23E0B695A7959795879510
:1035C0002A95D1F72091BC0024FD03C01092BC0EB7
:1035D00008954091BE0E5091BF0E6091C00E709143
:1035E000C10E452B462B472B69F30097A105B1056A
:1035F00041F02AE22A95F1F700C00197A109B1092B
:10360000E1CF8091BD0E0C9497091F920F920FB6D7
:103610000F9211242F933F938F939F93AF93BF9358
:103620008091680E9091690EA0916A0EB0916B0E18
:103630003091670E23E0230F2D3758F50196A11D19
:10364000B11D2093670E8093680E9093690EA0932E
:103650006A0EB0936B0E80916C0E90916D0EA091DE
:103660006E0EB0916F0E0196A11DB11D80936C0E70
:1036700090936D0EA0936E0EB0936F0EBF91AF91AD
:103680009F918F913F912F910F900FBE0F901F90A0
:10369000189526E8230F0296A11DB11DD2CF1F92C7
:1036A0000F920FB60F9211240BB60F922F933F93E8
:1036B0004F935F936F937F938F939F93AF93BF933A
:1036C000EF93FF9382EF9FE00E94BA05FF91EF9185
:1036D000BF91AF919F918F917F916F915F914F912A
:1036E0003F912F910F900BBE0F900FBE0F901F9028
:1036F00018951F920F920FB60F9211240BB60F92CE
:103700002F933F934F935F936F937F938F939F93E9
:10371000AF93BF93EF93FF9382EF9FE00E943C052E
:10372000FF91EF91BF91AF919F918F917F916F9199
:103730005F914F913F912F910F900BBE0F900FBE55
:103740000F901F9018951F920F920FB60F92112491
:103750000BB60F922F933F934F935F936F937F938B
:103760008F939F93AF93BF93EF93FF9388EB90E179
:103770000E94BA05FF91EF91BF91AF919F918F91F8
:103780007F916F915F914F913F912F910F900BBE61
:103790000F900FBE0F901F9018951F920F920FB6AB
:1037A0000F9211240BB60F922F933F934F935F9379
:1037B0006F937F938F939F93AF93BF93EF93FF93F9
:1037C00088EB90E10E943C05FF91EF91BF91AF9192
:1037D0009F918F917F916F915F914F913F912F9129
:1037E0000F900BBE0F900FBE0F901F9018951F9259
:1037F0000F920FB60F9211240BB60F922F933F9397
:103800004F935F936F937F938F939F93AF93BF93E8
:10381000EF93FF938EE791E10E94BA05FF91EF913C
:10382000BF91AF919F918F917F916F915F914F91D8
:103830003F912F910F900BBE0F900FBE0F901F90D6
:1038400018951F920F920FB60F9211240BB60F927C
:103850002F933F934F935F936F937F938F939F9398
:10386000AF93BF93EF93FF938EE791E10E943C05E6
:10387000FF91EF91BF91AF919F918F917F916F9148
:103880005F914F913F912F910F900BBE0F900FBE04
:103890000F901F9018951F920F920FB60F92112440
:1038A0000BB60F922F933F934F935F936F937F933A
:1038B0008F939F93AF93BF93EF93FF9386EE9EE01A
:1038C0000E94BA05FF91EF91BF91AF919F918F91A7
:1038D0007F916F915F914F913F912F910F900BBE10
:1038E0000F900FBE0F901F9018951F920F920FB65A
:1038F0000F9211240BB60F922F933F934F935F9328
:103900006F937F938F939F93AF93BF93EF93FF93A7
:1039100086EE9EE00E943C05FF91EF91BF91AF9132
:103920009F918F917F916F915F914F913F912F91D7
:103930000F900BBE0F900FBE0F901F9018951F9207
:103940000F920FB60F9211240BB60F922F933F9345
:103950004F935F936F937F938F939F93AF93BF9397
:10396000EF93FF93E0916908F0916A08309749F06E
:10397000A685B7858585968D91FF16C09C91892374
:10398000B1F4FF91EF91BF91AF919F918F917F9192
:103990006F915F914F913F912F910F900BBE0F90C0
:1039A0000FBE0F901F9018959C91892351F7A38902
:1039B000B4899C918589809589238C938689978980
:1039C0000197F1F7608D718DA685B785558538E033
:1039D00020E0CB010197F1F7822F90E09595879534
:1039E000282F4C91452309F02068315091F7868D9E
:1039F00081FD20958091670890E001968F7399274B
:103A000030916808381799F0A0916708B0E0A95D77
:103A1000B74F2C9380936708828D938D0197F1F7B0
:103A2000A389B4898C919589892B8C93AACF868D93
:103A30008160868FF1CF1F920F920FB60F921124E3
:103A40000BB60F922F933F934F935F936F937F9398
:103A50008F939F93AF93BF93EF93FF938091B900A0
:103A6000887F803609F44DC008F040C0883209F4E0
:103A7000A9C028F5803109F49DC0C8F4882309F451
:103A8000FBC0883009F496C0FF91EF91BF91AF91D0
:103A90009F918F917F916F915F914F913F912F9166
:103AA0000F900BBE0F900FBE0F901F90189588318E
:103AB00009F488C0803241F78093BA0E14C0803474
:103AC00009F49DC040F48033B9F38833E9F680935C
:103AD000BA0E85ECB0C0803509F485C0883509F48C
:103AE00096C0883489F60E94CD1ACECF883909F461
:103AF0008CC038F5883729F050F4883611F08037BB
:103B000019F683E08093BC0E10920D0857C08838D8
:103B100009F47BC0803919F0803809F0B5CF809165
:103B20000D08803208F071C0E0910D0881E08E0F21
:103B300080930D088091BB00F0E0E351F84F808343
:103B40003DC0803B39F0E0F4803A09F479C0883A0E
:103B500009F09ACF84E08093BC0E1092EC0710928B
:103B6000EB07E091720EF091730E19958091EB07BF
:103B700081110FC081E08093EB071092CB0709C041
:103B8000803C09F4A6CF883C09F4A3CF883B09F018
:103B90007BCFE091EC0781E08E0F8093EC07F0E0A3
:103BA000E553F84F80818093BB009091EC078091A2
:103BB000EB0729C08091970E8093BB0085EC809322
:103BC000BC0062CF9091B90E8091B80E981758F54D
:103BD000E091B90E81E08E0F8093B90EF0E0E856C7
:103BE000F14F8081E9CFE091B90E81E08E0F809393
:103BF000B90E8091BB00F0E0E856F14F80839091C0
:103C0000B90E8091B80E9817C8F285E8D8CFE09128
:103C1000B90E81E08E0F8093B90E8091BB00F0E069
:103C2000E856F14F80838091BB0E81115CCF81E01B
:103C30008093960E84EA8093BC001092BC0E24CF31
:103C400085EC8093BC001092BC0E80910D088032F0
:103C500030F4E0910D08F0E0E351F84F10826091EC
:103C60000D0870E0E091700EF091710E8DEE97E00E
:103C7000199510920D0808CF1092BA0E34CF1092F9
:103C8000F50F1092F40F88EE93E0A0E0B0E080937F
:103C9000F60F9093F70FA093F80FB093F90F20E56C
:103CA00032E03093F30F2093F20F45E351E050934D
:103CB000FF0F4093FE0F44E351E0509301104093F7
:103CC000001040E351E0509303104093021041E391
:103CD00051E0509305104093041042E351E050939B
:103CE00007104093061046E351E0509309104093AB
:103CF000081010920B1010920C1010920D101092D0
:103D00000E101092BB101092BA108093BC109093BA
:103D1000BD10A093BE10B093BF103093B910209384
:103D2000B81045ED50E05093C5104093C41044EDD9
:103D300050E05093C7104093C61040ED50E05093B0
:103D4000C9104093C81041ED50E05093CB10409300
:103D5000CA1042ED50E05093CD104093CC1046ED88
:103D600050E05093CF104093CE101092D11010928B
:103D7000D2101092D3101092D41010928111109280
:103D800080118093821190938311A0938411B0933A
:103D9000851130937F1120937E114DEC50E05093AC
:103DA0008B1140938A114CEC50E050938D1140934D
:103DB0008C1148EC50E050938F1140938E1149ECD8
:103DC00050E050939111409390114AEC50E0509381
:103DD0009311409392114EEC50E050939511409303
:103DE00094111092971110929811109299111092AB
:103DF0009A111092E90E1092E80E8093EA0E9093B9
:103E0000EB0EA093EC0EB093ED0E3093E70E2093E3
:103E1000E60E25EC30E03093F30E2093F20E24EC06
:103E200030E03093F50E2093F40E20EC30E0309328
:103E3000F70E2093F60E21EC30E03093F90E20932C
:103E4000F80E22EC30E03093FB0E2093FA0E26ECB5
:103E500030E03093FD0E2093FC0E1092FF0E109276
:103E6000000F1092010F1092020F1092860F109205
:103E7000850F8093870F9093880FA093890FB0933D
:103E80008A0F22E632E03093840F2093830F109242
:103E90009B1210929C1210929D1210929E124AE058
:103EA00050E05093A01240939F121092A11220EA6A
:103EB00032E030939A12209399121092AA12109223
:103EC000891210928A1210928B1210928C125093B7
:103ED0008E1240938D1210928F123093881220937D
:103EE00087121092981210927712109278121092F4
:103EF000791210927A1250937C1240937B12109296
:103F00007D123093761220937512109286121092C1
:103F10006C1210926B1224E932E030936A122093F3
:103F200069122FE320936D1224E12093721224E092
:103F3000209373121092741210924D1210924C1220
:103F400080934E1290934F12A0935012B09351123F
:103F500082E892E090934B1280934A121092611281
:103F600010926012109263121092621210926512F7
:103F70001092641210926712109266126091681289
:103F80006E7F6D7F609368126695617081E068272F
:103F900082E00E94160461E082E00E944404E8E0AE
:103FA000F6E0E491E0935A12E2ECF5E0E491F0E0FF
:103FB000EE0FFF1FEA55FA4F8591949190935C1292
:103FC00080935B1260E083E00E9444048091681259
:103FD00081FD04C061E083E00E94160483E08093C9
:103FE0005612E9E0F6E0E491E0935712E3ECF5E0D5
:103FF000E491F0E0EE0FFF1FE457FA4F85919491A2
:10400000909359128093581263E073E084E492E134
:104010000E9450186EE771E18BE192E10E948F03DC
:1040200068EB70E185E591E10E948F0362EF7FE02C
:104030008FE890E10E948F0360E086E10E944404D3
:10404000ECE1F6E0E491E093E40FE6EDF5E0E491D5
:10405000F0E0EE0FFF1FE457FA4F85919491909393
:10406000E60F8093E50F1092EF0F1092F10F109270
:10407000F00F1092EE0F1092ED0F1092EC0F1092C5
:10408000EB0F1092EA0F1092E90F1092E80F1092C6
:10409000E70F1092E30F1092E20F1092CE0F84EE12
:1040A0009FE09093D70F8093D60F1092D40F109269
:1040B000D50F1092CD0F89E08093D00F81E08093CF
:1040C000D10F8093D20F8093D30F84E792E0909327
:1040D000C20F8093C10F1092C40F1092C30F1092A1
:1040E000C60F1092C50F89E390E3A0E0B0E0809383
:1040F000C70F9093C80FA093C90FB093CA0F109227
:10410000CC0F1092CB0F20913002309131024091B0
:1041100032025091330260913402709135028091E5
:104120003602909137020E9452399B01AC010E94E5
:10413000CC379B01AC0160E070E080E89FE30E9417
:10414000E5389B01AC0160E070E080E89FE30E94ED
:1041500052390E94073A20E030E040E251E40E94E8
:10416000CC3720E030E04AE754E40E94CC370E948C
:10417000CB397093C00F6093BF0F61E173E08FE89C
:104180009FE00E94501868E173E085E99FE00E947B
:1041900050186FE173E08BE99FE00E94501862E2D3
:1041A00073E081EA9FE00E94501865EB72E087EAB5
:1041B0009FE00E94501865E273E08DEA9FE00E9444
:1041C00050186AE273E083EB9FE00E9450186FE2A0
:1041D00073E089EB9FE00C945018CF93DF93CDB739
:1041E000DEB7C857D1090FB6F894DEBF0FBECDBFFA
:1041F000789484B5826084BD84B5816084BD85B5C2
:10420000826085BD85B5816085BD80916E008160CD
:1042100080936E0010928100809181008260809373
:104220008100809181008160809381008091800075
:104230008160809380008091B10084608093B100A0
:104240008091B00081608093B00080919100826085
:104250008093910080919100816080939100809182
:1042600090008160809390008091A1008260809393
:10427000A1008091A10081608093A1008091A000A5
:1042800081608093A0008091210182608093210150
:1042900080912101816080932101809120018160C2
:1042A0008093200180917A00846080937A008091CD
:1042B0007A00826080937A0080917A008160809396
:1042C0007A0080917A00806880937A001092C10011
:1042D00086EE9EE00E945B038EE791E10E945B0305
:1042E00088EB90E10E945B0382EF9FE00E945B03FA
:1042F0001092651210926412109263121092621260
:1043000010926112109260128DE991E09093671201
:10431000809366128091561296EF980F943048F071
:104320002EEC280F243028F022EC280F283008F03B
:1043300061C02DEB30E030936112209360122BE9C5
:1043400031E030936312209362122CE231E030931B
:10435000651220936412943050F02EEC280F243014
:1043600030F022EC280FF0E0E0E0283010F4E8E62E
:10437000F0E02081943028F032EC380F383008F427
:10438000B8C031E0232B943048F09EEC980F943065
:1043900028F08E53F0E0E0E0883010F4E8E6F0E03A
:1043A00020832091561236EF320F343008F4A3C028
:1043B0008EEC820F843008F49EC082EC820F88302D
:1043C00008F09CC08DE690E090935E1280935D12A1
:1043D000343008F096C02650330B81E001C0880FBE
:1043E0002A95EAF780935F12809166129091671286
:1043F0000197F1F78AE492E10E941108E091D60F4B
:10440000F091D70F138615861486128611861086B2
:10441000178216821582148213821092D40F109282
:10442000D50F11E0BE016B5D7F4F8091D60F90914B
:10443000D70F0E94C00F882309F492C067E0CE0115
:1044400085960E94690B9CA58913ECCF8091D40FAF
:104450008F5F8093D40F8DA1883231F008F066C051
:10446000803111F08232F1F68091D50F8F5F809309
:10447000D50F8091CD0F811128C08091D60F9091DA
:10448000D70F0E94260CBE016B5D7F4F8091D60F27
:104490009091D70F0E94070C40E064EB8091D60FFB
:1044A0009091D70F0E94D30B8091D60F9091D70F88
:1044B0000E94800B082F8091D60F9091D70F0E94F9
:1044C000260C011102C01093CD0F8DA18031C9F1CE
:1044D000BE016F5F7F4FCE0185960E945E0C8823E0
:1044E00031F08D818F3379F140F58F31A9F180E082
:1044F0002BC034E047CF8BE690E066CF90E080E0C1
:1045000063CF88E0223309F46DCF84E0233309F4CC
:1045100069CF82E0243309F465CF82EC820F8830C2
:1045200018F42E53330B59CF81E05CCF8B3309F451
:104530009BCF823409F076CF97CF8F3579F08F37C4
:10454000B1F68CE001C08AE09091D00F981708F086
:1045500069CF8093D00F66CF89E0F6CF8BE0F4CFA0
:10456000E090C50FF090C60FE114F10411F00C9427
:1045700092328091C30F9091C40F009711F00E9466
:10458000AB3B86E090E00E940F3B8C0183E5D801B5
:104590008C9383E89FE012969C938E9311971396C9
:1045A0001C92139780E290E015969C938E9314973B
:1045B0001093C40F0093C30F0E94800981E0F8019B
:1045C0008383C8010E94A80A81110C94DB3286E320
:1045D00090E090933809809337090FE812E42AE6B7
:1045E00033E400933B0910933C0920933D09309339
:1045F0003E094AE959E969ED7FE340934309509345
:104600004409609345097093460980E090E0A0E07A
:10461000B4E48093570990935809A0935909B09333
:104620005A09E7E3F0E0F093DC08E093DB0800933D
:10463000DF081093E0082093E1083093E2084093EC
:10464000E7085093E8086093E9087093EA088093BC
:10465000FB089093FC08A093FD08B093FE0881E34B
:104660000E94520F807F682F6B6081E30E94210FB0
:1046700083E090E09093CC0F8093CB0F04E610E0A2
:10468000BE016F5F7F4F81EC9FE00E944F1A6D89E2
:104690007E898F89988D9B01AC010E94CC37209137
:1046A000B3083091B4084091B5085091B6080E9403
:1046B000E6382B013C014092B3085092B408609256
:1046C000B5087092B608698D7A8D8B8D9C8D9B0193
:1046D000AC010E94CC372091B7083091B8084091C6
:1046E000B9085091BA080E94E6384B015C018092EB
:1046F000B7089092B808A092B908B092BA086D8D28
:104700007E8D8F8D98A19B01AC010E94CC372091AA
:10471000BB083091BC084091BD085091BE080E9472
:10472000E6386B017C01C092BB08D092BC08E092D5
:10473000BD08F092BE086AE070E080E090E00E9460
:10474000C2040150110909F09BCF20E030E048EC91
:1047500052E4C301B2010E9452390E94553A60935B
:10476000B3087093B4088093B5089093B60820E01E
:1047700030E048EC52E4C501B4010E9452390E9475
:10478000553A6093B7087093B8088093B90890932E
:10479000BA0820E030E048EC52E4C701B6010E94BC
:1047A00052390E94553A6093BB087093BC088093BD
:1047B000BD089093BE080E94800910926E128091ED
:1047C0007312823018F098E090936E1280937112F9
:1047D00062E370E080E090E00E94C2046091741295
:1047E00089E692E10E94520B68EE73E080E090E06F
:1047F0000E94C20460E389E692E10E9440100BE44B
:1048000016E4C8010197F1F760E389E692E10E949E
:104810004010C8010197F1F760E389E692E10E9438
:10482000401083E592E00197F1F760E289E692E1BA
:104830000E94401060916E12606240E089E692E151
:104840000E94591084E080936F1240E06CE089E68A
:1048500092E10E9459100E94A21082E0809370128F
:1048600040E066E089E692E10E94591040E062E093
:1048700089E692E10E9459108BE39FE10197F1F7DD
:1048800088E08093741260E089E692E10E94520B06
:1048900062E089E00E94440462E08AE00E944404ED
:1048A00062E08BE00E94440489E08093AA1289E9C7
:1048B00092E10E9408078AE08093981287E892E1CB
:1048C0000E9408078BE08093861285E792E10E94A0
:1048D000080760E080E00E94701065E373E089E6FD
:1048E00092E10E94071468EB7BE080E090E00E9478
:1048F000C2040E94A2106DE373E0CE0101960E94F3
:104900005018CE0101960E94A119CE0101960E9475
:10491000401761E08CE10E94440460E08CE10E9459
:1049200016041E01F3E62F0E311C85E792E10E946A
:10493000A30685E792E10E946E06882309F4EAC087
:104940000E94611889E992E10E94A30687E892E13A
:104950000E94A30685E792E10E94A30689E992E1FD
:104960000E946E06882309F10091650E1091660E73
:104970000730110511F00C9412332DEC3CEC4CEC8B
:104980005DE360912C0270912D0280912E02909136
:104990002F020E94E63860932C0270932D028093C0
:1049A0002E0290932F020E94611887E892E10E94E4
:1049B0006E06882309F10091650E1091660E07308E
:1049C000110511F00C942A332DEC3CEC4CEC5DE31A
:1049D00060912C0270912D0280912E0290912F02F5
:1049E0000E94E53860932C0270932D0280932E0272
:1049F00090932F020E94611885E792E10E946E0653
:104A0000882359F08091650E9091660E01969093DF
:104A1000660E8093650E0E9461188091650E9091DC
:104A2000660E08970CF48ECF0E94A21060E080E022
:104A30000E94701067E473E089E692E10E94071417
:104A400060ED77E080E090E00E94C2041092660E74
:104A50001092650E8091100290911102A0911202A5
:104A6000B091130280930C0290930D02A0930E025A
:104A7000B0930F028091140290911502A09116023A
:104A8000B09117028093300290933102A0933202CA
:104A9000B09333028091180290911902A0911A02EA
:104AA000B0911B028093080290930902A0930A021E
:104AB000B0930B0280911C0290911D02A0911E02E6
:104AC000B0911F028093340290933502A093360276
:104AD000B09337028091240290912502A091260282
:104AE000B09127028093040290930502A0930602DE
:104AF000B09307028091280290912902A0912A0286
:104B0000B0912B028093000290930102A0930202C5
:104B1000B093030286EE9EE00E948605892BD1F0B9
:104B200086EE9EE00E946405803311F40C944233BB
:104B3000813311F00C944E3381E090E09093640E39
:104B40008093630E61E08CE10E9416048CE593E093
:104B50000E94F3128BE192E10E94B310882311F4BA
:104B60000C945A338091221290912312A091241216
:104B7000B091251280935F0E9093600EA093610E0A
:104B8000B093620E8BE192E10E94B310882311F47E
:104B90000C9460338091261290912712A0912812D4
:104BA000B091291280935B0E90935C0EA0935D0EE2
:104BB000B0935E0E8BE192E10E94B310882311F452
:104BC0000C9466338091321290913312A09134127A
:104BD000B09135128093570E9093580EA093590EB2
:104BE000B0935A0E85E591E10E94B310882311F429
:104BF0000C946C3380915C1190915D11A0915E11C9
:104C0000B0915F118093530E9093540EA093550E64
:104C1000B093560E85E591E10E94B310882311F4FC
:104C20000C9472338091601190916111A091621186
:104C3000B091631180934F0E9093500EA093510E3C
:104C4000B093520E85E591E10E94B310882311F4D0
:104C50000C94783380916C1190916D11A0916E112C
:104C6000B0916F1180934B0E90934C0EA0934D0E0C
:104C7000B0934E0E8FE890E10E94B310882311F498
:104C80000C947E338091961090919710A09198107B
:104C9000B09199108093470E9093480EA093490EBF
:104CA000B0934A0E8FE890E10E94B310882311F46C
:104CB0000C94843380919A1090919B10A0919C1039
:104CC000B0919D108093430E9093440EA093450E97
:104CD000B093460E8FE890E10E94B310882311F440
:104CE0000C948A338091A6109091A710A091A810DF
:104CF000B091A91080933F0E9093400EA093410E67
:104D0000B093420E8091D60F9091D70F0E94260C3F
:104D100040E06CEC8091D60F9091D70F0E94D30B9E
:104D20004091CD0F64E48091D60F9091D70F0E94EF
:104D3000D30B8091D10F882321F1E091D00F809186
:104D4000D20F882311F40C9490338091CD0F8111F0
:104D50000C9490330E94F5046B017C018091D60F76
:104D60009091D70F0E94800B813059F00E94F5047A
:104D70006C197D098E099F096E3E7240810591056F
:104D800068F3E091D60FF091D70F1386158614863D
:104D9000128611861086178216821582148213825B
:104DA000BE016B5D7F4F8091D60F9091D70F0E940F
:104DB000C00F81110C94BA3360E070E08EEF92EC7A
:104DC00060933B0E70933C0E80933D0E90933E0E8D
:104DD0000BEA1CE0ABE1CA2EABE0DA2EBBE8EB2E0F
:104DE000B9E0FB2E8BE3A82E8EE0B82EBE016F5FDC
:104DF0007F4F81EC9FE00E944F1A8D899E89AF8979
:104E0000B88DF80181939193A193B1938F01898D0E
:104E10009A8DAB8DBC8DF60181939193A193B19343
:104E20006F018D8D9E8DAF8DB8A1F7018193919308
:104E3000A193B1937F016AE070E080E090E00E946E
:104E4000C204A016B10691F68BEA9CE00E940914F8
:104E500060938709709388098093890990938A09E0
:104E60008BE19BE00E94091460938309709384098D
:104E700080938509909386098BE899E00E94091434
:104E800060937F09709380098093810990938209D0
:104E900067EB73E086EE9EE00E940714609187093D
:104EA000709188098091890990918A0942E00E9455
:104EB00006136FEB73E086EE9EE00E94071460918C
:104EC000830970918409809185099091860942E057
:104ED0000E94061368EC73E086EE9EE00E940714C1
:104EE00060917F0970918009809181099091820978
:104EF0000E94E21383E299E00E943B1487EC98E061
:104F00000E943B1480912F0990913009A0913109A2
:104F1000B09132098093C3089093C408A093C50848
:104F2000B093C6088091D3089091D408A091D50879
:104F3000B091D6088093BF089093C008A093C10891
:104F4000B093C2088091630E9091640E18161906F2
:104F500014F00C948E324091570E5091580E60917F
:104F6000590E70915A0ECE0101960E94121840916E
:104F70005B0E50915C0E60915D0E70915E0ECE01E5
:104F800085960E94121840915F0E5091600E6091BC
:104F9000610E7091620ECE018D960E94121861ED25
:104FA00073E0CE01C3960E945018BE01635D7F4F2F
:104FB000CE01C3960E94DE176EED73E00E94C81703
:104FC000BE016B5D7F4F0E94DE1767EE73E00E94AB
:104FD000C817BE016F5F7F4F0E94DE1767EB72E05C
:104FE0000E94C817BC0186EE9EE00E94F313CE011A
:104FF000C3960E944017CE018D960E944017CE01A5
:1050000085960E944017CE0101960E94401740915C
:105010004B0E50914C0E60914D0E70914E0ECE0184
:1050200001960E94121840914F0E5091500E6091BF
:10503000510E7091520ECE0185960E941218409129
:10504000530E5091540E6091550E7091560ECE0134
:105050008D960E94121866EF73E0CE01C3960E94EF
:105060005018BE01635D7F4FCE01C3960E94DE17CC
:1050700063E074E00E94C817BE016B5D7F4F0E9421
:10508000DE176CE074E00E94C817BE016F5F7F4FAF
:105090000E94DE1767EB72E00E94C817BC0186EE23
:1050A0009EE00E94F313CE01C3960E944017CE01EA
:1050B0008D960E944017CE0185960E944017CE0122
:1050C00001960E94401740913F0E5091400E609112
:1050D000410E7091420ECE0101960E94121840912D
:1050E000430E5091440E6091450E7091460ECE01D4
:1050F00085960E9412184091470E5091480E60917B
:10510000490E70914A0ECE018D960E9412186BE1E5
:1051100074E0CE01C3960E945018BE01635D7F4FBC
:10512000CE01C3960E94DE1768E274E00E94C817A1
:10513000BE016B5D7F4F0E94DE1761E374E00E9449
:10514000C817BE016F5F7F4F0E94DE1767EB72E0EA
:105150000E94C817BC0186EE9EE00E94F313CE01A8
:10516000C3960E944017CE018D960E944017CE0133
:1051700085960E944017CE0101960E94401760E478
:1051800074E086EE9EE00E94071460913B0E7091E1
:105190003C0E80913D0E90913E0E42E00E9406131F
:1051A0006EE474E086EE9EE00E94071465E574E00C
:1051B00086EE9EE00E94071442E060E070E0CB01C2
:1051C0000E9406136FE674E086EE9EE00E940714CC
:1051D00042E060E070E0CB010E9406136FE674E0ED
:1051E00086EE9EE00E94071460E070E0CB010E9412
:1051F000E21362E774E086EE9EE00E94071460917D
:10520000C3087091C4088091C5089091C6080E9497
:10521000E21361E974E086EE9EE00E94071460915B
:10522000BF087091C0088091C1089091C2080E9487
:10523000E21380905B0E90905C0EA0905D0EB0909B
:105240005E0EC0900C02D0900D02E0900E02F09025
:105250000F02A7019601C501B4010E94FA39181680
:1052600054F420E030E04AE754E4C501B4010E9460
:10527000663787FD34C080904F0E9090500EA090FE
:10528000510EB090520EA5019401C701B6010E94C3
:10529000663787FF0AC020E030E04AE754E4C501E2
:1052A000B4010E94663787FD1AC08090430E90902B
:1052B000440EA090450EB090460EA5019401C70182
:1052C000B6010E94663787FF25C020E030E04AE73C
:1052D00054E4C501B4010E94663787FF1BC00E94D9
:1052E000CB0D8091A808811115C081EB94E00E943C
:1052F000F31261EB74E0CE0101960E945018CE01CA
:1053000001960E94A119CE0101960E94401781E0EA
:105310008093A8080E94F5046B017C0180918408A9
:1053200090918508A0918608B091870846015701A1
:10533000881A990AAA0ABB0A40903002509031029A
:105340006090320270903302A301920160915B0E73
:1053500070915C0E80915D0E90915E0E0E94FA3904
:10536000181614F00C940F348091800890918108E5
:10537000A0918208B0918308892B8A2B8B2B41F452
:10538000C0928008D0928108E0928208F09283084F
:1053900080917C0890917D08A0917E08B0917F0853
:1053A000880D991DAA1DBB1D80937C0890937D08D4
:1053B000A0937E08B0937F0820914F0E3091500E3D
:1053C0004091510E5091520EC301B2010E946637B6
:1053D00087FD02C00C94213480917808909179085F
:1053E000A0917A08B0917B08892B8A2B8B2B41F4F2
:1053F000C0927808D0927908E0927A08F0927B08FF
:105400008091740890917508A0917608B091770802
:10541000880D991DAA1DBB1D809374089093750873
:10542000A0937608B09377082091430E3091440EF4
:105430004091450E5091460EC301B2010E9466375D
:1054400087FD02C00C9433348091700890917108EC
:10545000A0917208B0917308892B8A2B8B2B41F491
:10546000C0927008D0927108E0927208F0927308AE
:1054700080916C0890916D08A0916E08B0916F08B2
:10548000880D991DAA1DBB1D80936C0890936D0813
:10549000A0936E08B0936F08C0928408D0928508DC
:1054A000E0928608F09287088091BF0F9091C00F1C
:1054B000B0E0A0E040917C0850917D0860917E08AA
:1054C00070917F08481759076A077B07D0F440910D
:1054D00074085091750860917608709177084817A4
:1054E00059076A077B0768F440916C0850916D0872
:1054F00060916E0870916F08481759076A077B071B
:10550000D8F00E94CB0D8091A708811115C081EDC4
:1055100094E00E94F31261ED74E0CE0101960E94C6
:105520005018CE0101960E94A119CE0101960E9449
:10553000401781E08093A70880905F0E9090600EE6
:10554000A090610EB090620EC090530ED090540E99
:10555000E090550EF090560EAD96CCAEDDAEEEAEB0
:10556000FFAEAD97C090470ED090480EE090490E28
:10557000F0904A0EE196CCAEDDAEEEAEFFAEE19716
:10558000AD962CAD3DAD4EAD5FADAD97C501B4014F
:105590000E94E638A70196010E94E63820E030E03C
:1055A00040E450E40E9452396B017C010E94F504F2
:1055B000E5966CAF7DAF8EAF9FAFE597A7019601E3
:1055C000C501B4010E94E5384B015C0120E030E0E8
:1055D000A9010E94FA39181624F0B7FAB094B7F866
:1055E000B0942AE037ED43E25CE3C701B6010E94C4
:1055F000CC372B013C01A50194010E94663787FD41
:1056000040C0A7019601AD966CAD7DAD8EAD9FAD4E
:10561000AD970E94E5384B015C0120E030E0A90124
:105620000E94FA39181624F0B7FAB094B7F8B0947B
:10563000A5019401C301B2010E94663787FD21C014
:10564000A7019601E1966CAD7DAD8EAD9FADE19762
:105650000E94E5386B017C0120E030E0A9010E9446
:10566000FA39181624F0F7FAF094F7F8F094A70135
:105670009601C301B2010E94663787FD02C00C94F7
:10568000453480919008811111C081E08093900889
:10569000E596CCACDDACEEACFFACE597C0928C08E7
:1056A000D0928D08E0928E08F0928F088091880841
:1056B00090918908A0918A08B0918B0840918C083C
:1056C00050918D0860918E0870918F08841B950B06
:1056D000A60BB70BE596CCACDDACEEACFFACE5971A
:1056E0008C0D9D1DAE1DBF1D809388089093890869
:1056F000A0938A08B0938B0888389341A105B1051F
:1057000010F00C945934C0905B0ED0905C0EE09079
:105710005D0EF0905E0E40904F0E5090500E6090D7
:10572000510E7090520E8091430E9091440EA091B4
:10573000450EB091460EE1968CAF9DAFAEAFBFAFB8
:10574000E197A3019201C701B6010E94E638E196F4
:105750002CAD3DAD4EAD5FADE1970E94E63820E047
:1057600030E040E450E40E945239AD966CAF7DAF1A
:105770008EAF9FAFAD970E94F504E5966CAF7DAFFD
:105780008EAF9FAFE597AD962CAD3DAD4EAD5FAD05
:10579000AD97C701B6010E94E5386B017C0120E09E
:1057A00030E0A9010E94FA39181624F0F7FAF094B3
:1057B000F7F8F0942DEC3CEC4CE45DE3AD966CAD69
:1057C0007DAD8EAD9FADAD970E94CC374B015C0196
:1057D000A70196010E94663787FD44C0AD962CADA7
:1057E0003DAD4EAD5FADAD97C301B2010E94E5384E
:1057F0006B017C0120E030E0A9010E94FA39181603
:1058000024F0F7FAF094F7F8F094A7019601C50197
:10581000B4010E94663787FD25C0AD962CAD3DAD25
:105820004EAD5FADAD97E1966CAD7DAD8EAD9FADEC
:10583000E1970E94E5386B017C0120E030E0A9018E
:105840000E94FA39181624F0F7FAF094F7F8F09459
:10585000A7019601C501B4010E94663787FD02C009
:105860000C94753480919908811111C081E0809366
:105870009908E596CCACDDACEEACFFACE597C092F8
:105880009508D0929608E0929708F0929808809137
:10589000910890919208A0919308B091940840913A
:1058A0009508509196086091970870919808841B0C
:1058B000950BA60BB70BE596CCACDDACEEACFFAC14
:1058C000E5978C0D9D1DAE1DBF1D80939108909393
:1058D0009208A0939308B093940888389341A10547
:1058E000B10510F00C948934AD962CAD3DAD4EADA4
:1058F0005FADAD9760915B0E70915C0E80915D0E17
:1059000090915E0E0E94E5382B013C0120E030E0D2
:10591000A9010E94FA39181624F077FA709477F8E2
:105920007094AD962CAD3DAD4EAD5FADAD97609131
:105930004F0E7091500E8091510E9091520E0E9418
:10594000E5386B017C0120E030E0A9010E94FA39C2
:10595000181624F0F7FAF094F7F8F0948091430EBB
:105960009091440EA091450EB091460EE1968CAFF9
:105970009DAFAEAFBFAFE197AD962CAD3DAD4EAD97
:105980005FADAD97BC01CD010E94E5384B015C01D4
:1059900020E030E0A9010E94FA39181624F0B7FA85
:1059A000B094B7F8B094A7019601C301B2010E9468
:1059B000FA39181614F473016201A7019601C501A2
:1059C000B4010E94663787FD02C075016401AD967F
:1059D0002CAD3DAD4EAD5FADAD97C701B6010E9498
:1059E00052396B017C012DEC3CEC4CE45EE30E94EF
:1059F000FA3918160CF0A9C720E030E04AE754E461
:105A0000E1966CAD7DAD8EAD9FADE1970E9466379E
:105A100087FF9BC78091A408811115C086E795E098
:105A20000E94F31266E775E0CE0101960E945018BD
:105A3000CE0101960E94A119CE0101960E94401745
:105A400081E08093A4082DEC3CEC4CE85FE360918E
:105A500008027091090280910A0290910B020E9443
:105A6000CC376B017C0180905F0E9090600EA0900F
:105A7000610EB090620EA50194010E94663787FF07
:105A80000AC020E030E04AE754E4C501B4010E94B6
:105A9000663787FD34C08090530E9090540EA090CE
:105AA000550EB090560EA5019401C701B6010E9493
:105AB000663787FF0AC020E030E04AE754E4C501BA
:105AC000B4010E94663787FD1AC08090470E9090FF
:105AD000480EA090490EB0904A0EA5019401C7014E
